:0300000002027188
:0C027100787FE4F6D8FD7581500202B8D9
:0604AD0000000000000049
:100363000A413F065B4F666D7D077F6F010C0001FD
:100373000D00010B00013E00013F00014000010898
:100383000020300E0000000000000000000000010B
:100393000000000100000000000100010001000056
:1003A3000000000100000001000100010000000145
:0803B300000100010209000035
:1004660012012645F024FF92A49000021201514584
:10047600F024FF92A390000412015145F024FF924C
:02048600A222B0
:0E049800E4F50CF50DF50BF53EF53FF54022B1
:040442007F017E00B8
:10044600E4FDFCC3ED9FEC9E5015E4FBFA0BBB00EC
:0F045600010AEB64784A70F50DBD00010C80E4DB
:010465002274
:10048800758901E4F58A758CDCD2A9D2AFD28C22A9
:0704A600D288D2A8D2AF22D8
:10018900784B7C007D007BFF7A0479AD7E007F0689
:100199001200DEE50C75F00A120104F54BE50C7549
:1001A900F00A12010485F04CE50D75F00A120104FC
:1001B900F54DE50D75F00A12010485F04EE50B7554
:1001C900F00A120104F54FE50B75F00A12010485D6
:1001D900F0507B007A00790E12046674412550F8BC
:1001E900E6F5801204427B007A00791412046674E1
:1001F90041254FF8E6F5801204467B007A00791A0A
:100209001204667580401204467B007A0079201238
:1002190004667441254EF8E6F5801204467B007A9F
:100229000079261204667441254DF8E6F58012041A
:10023900467B007A00792C120466758040120446C8
:100249007B007A0079321204667441254CF8E6F590
:10025900801204467B007A007938120466744125BD
:080269004BF8E6F580020446A3
:1003BC001204881204A6120498E50814600D24FE99
:1003CC00600D2403700F120189800AB2A0800612FE
:1003DC000498E4F50820B10912044220B103E4F5B5
:1003EC000830B1FD20B00912044220B00375080199
:1003FC0030B0FD20B30912044220B303750803206A
:04040C00B3B780FB07
:03000B000202FDF1
:1002FD00C0E0C0D075D000C006C007758CDC758A13
:10030D0000050AE50A70020509C39464E5096480D5
:10031D0094804008750900750A00050BAF0BEF338B
:10032D0095E0FEEF643C4E7004F50B050DAF0DEF3F
:10033D003395E0FEEF643C4E7004F50D050CAF0CEB
:10034D00EF3395E0FEEF64184E7002F50CD007D038
:06035D0006D0D0D0E03212
:03000300020410E4
:10041000C0E0C0D075D000C002C003C004C005C099
:1004200006C00720B10812044220B102B2A030B1C8
:10043000FDD007D006D005D004D003D002D0D0D054
:02044000E032A8
:10027D000203BCE493A3F8E493A34003F68001F2D8
:10028D0008DFF48029E493A3F85407240CC8C33382
:10029D00C4540F4420C8834004F456800146F6DF51
:1002AD00E4800B0102040810204080900363E47E7B
:1002BD00019360BCA3FF543F30E509541FFEE49346
:1002CD00A360010ECF54C025E060A840B8E493A30D
:1002DD00FAE493A3F8E493A3C8C582C8CAC583CA38
:1002ED00F0A3C8C582C8CAC583CADFE9DEE780BEF0
:0103BB000041
:10000E00E709F608DFFA8046E709F208DFFA803ED4
:10001E0088828C83E709F0A3DFFA8032E309F608C1
:10002E00DFFA8078E309F208DFFA807088828C8329
:10003E00E309F0A3DFFA806489828A83E0A3F608DD
:10004E00DFFA805889828A83E0A3F208DFFA804CB7
:10005E0080D280FA80C680D4806980F2803380108E
:10006E0080A680EA809A80A880DA80E280CA8033F7
:10007E0089828A83ECFAE493A3C8C582C8CCC5836F
:10008E00CCF0A3C8C582C8CCC583CCDFE9DEE7803F
:10009E000D89828A83E493A3F608DFF9ECFAA9F0BE
:1000AE00EDFB2289828A83ECFAE0A3C8C582C8CC14
:1000BE00C583CCF0A3C8C582C8CCC583CCDFEADE2D
:1000CE00E880DB89828A83E493A3F208DFF980CC8F
:1000DE0088F0EF60010E4E60C388F0ED2402B40488
:1000EE000050B9F582EB2402B4040050AF2323452F
:0600FE00822390005E73F6
:10010400C2D530F707B2D563F0FF05F030E70CB283
:10011400D5F4048463F0FF05F080018430D502F443
:020124000422B3
:10012600BB010A89828A83E0F5F0A3E022500687A4
:10013600F009E71922BBFE07E3F5F009E319228966
:0B014600828A83E493F5F07401932299
:10015100BB0110E58229F582E5833AF583E0F5F0EC
:10016100A3E0225009E92582F886F008E622BBFEC9
:100171000AE92582F8E2F5F008E222E5832AF5830F
:08018100E993F5F0A3E99322D4
:00000001FF
