:03000000020310E8
:0C031000787FE4F6D8FD75815002035799
:0604F800000000000000FE
:100402000A413F065B4F666D7D077F6F010C00015D
:100412000D00010B00013E00013F000140000108F8
:100422000020300E0000000000000000000000016B
:1004320000000001000000000001000100010000B6
:1004420000000001000000010001000100000001A5
:08045200000100010209000095
:1004B10012012645F024FF92A49000021201514539
:1004C100F024FF92A390000412015145F024FF9201
:0204D100A22265
:0E04E300E4F50CF50DF50BF53EF53FF5402266
:04048D007F017E006D
:10049100E4FDFCC3ED9FEC9E5015E4FBFA0BBB00A1
:0F04A100010AEB64784A70F50DBD00010C80E490
:0104B0002229
:1004D300758901E4F58A758CDCD2A9D2AFD28C225E
:0704F100D288D2A8D2AF228D
:10018900784B7C007D007BFF7A0479F87E007F063E
:100199001200DEE50C75F00A120104F54BE50C7549
:1001A900F00A12010485F04CE50D75F00A120104FC
:1001B900F54DE50D75F00A12010485F04EE50B7554
:1001C900F00A120104F54FE50B75F00A12010485D6
:1001D900F0507B007A00790E1204B174412550F871
:1001E900E6F58012048D7B007A0079141204B1744B
:1001F90041254FF8E6F5801204917B007A00791ABF
:100209001204B17580401204917B007A00792012A2
:1002190004B17441254EF8E6F5801204917B007A09
:100229000079261204B17441254DF8E6F5801204CF
:10023900917B007A00792C1204B1758040120491E7
:100249007B007A0079321204B17441254CF8E6F545
:10025900801204917B007A0079381204B174412527
:080269004BF8E6F58002049158
:100271001204D31204F11204E3E50814600D24FE04
:100281006055240370571201898052B2A07FE87E25
:1002910003120491B2A0120491B2A1120491B2A16D
:1002A100120491B2A2120491B2A2120491B2A31249
:1002B1000491B2A3120491B2A4120491B2A4120443
:1002C10091B2A5120491B2A5120491B2A6120491A1
:1002D100B2A612049180061204E3E4F50820B109E4
:1002E10012048D20B103E4F50830B1FD20B00912EC
:1002F100048D20B00375080130B0FD20B30912044C
:0F0301008D20B30375080330B30302027A80F82E
:03000B0002039C51
:10039C00C0E0C0D075D000C006C007758CDC758A73
:1003AC0000050AE50A70020509C39464E509648036
:1003BC0094804008750900750A00050BAF0BEF33EC
:1003CC0095E0FEEF643C4E7004F50B050DAF0DEFA0
:1003DC003395E0FEEF643C4E7004F50D050CAF0C4C
:1003EC00EF3395E0FEEF64184E7002F50CD007D099
:0603FC0006D0D0D0E03273
:0300030002045B99
:10045B00C0E0C0D075D000C002C003C004C005C04E
:10046B0006C00720B10812048D20B102B2A030B132
:10047B00FDD007D006D005D004D003D002D0D0D009
:02048B00E0325D
:10031C00020271E493A3F8E493A34003F68001F284
:10032C0008DFF48029E493A3F85407240CC8C333E2
:10033C00C4540F4420C8834004F456800146F6DFB1
:10034C00E4800B0102040810204080900402E47E3B
:10035C00019360BCA3FF543F30E509541FFEE493A6
:10036C00A360010ECF54C025E060A840B8E493A36D
:10037C00FAE493A3F8E493A3C8C582C8CAC583CA98
:10038C00F0A3C8C582C8CAC583CADFE9DEE780BE50
:01045A0000A1
:10000E00E709F608DFFA8046E709F208DFFA803ED4
:10001E0088828C83E709F0A3DFFA8032E309F608C1
:10002E00DFFA8078E309F208DFFA807088828C8329
:10003E00E309F0A3DFFA806489828A83E0A3F608DD
:10004E00DFFA805889828A83E0A3F208DFFA804CB7
:10005E0080D280FA80C680D4806980F2803380108E
:10006E0080A680EA809A80A880DA80E280CA8033F7
:10007E0089828A83ECFAE493A3C8C582C8CCC5836F
:10008E00CCF0A3C8C582C8CCC583CCDFE9DEE7803F
:10009E000D89828A83E493A3F608DFF9ECFAA9F0BE
:1000AE00EDFB2289828A83ECFAE0A3C8C582C8CC14
:1000BE00C583CCF0A3C8C582C8CCC583CCDFEADE2D
:1000CE00E880DB89828A83E493A3F208DFF980CC8F
:1000DE0088F0EF60010E4E60C388F0ED2402B40488
:1000EE000050B9F582EB2402B4040050AF2323452F
:0600FE00822390005E73F6
:10010400C2D530F707B2D563F0FF05F030E70CB283
:10011400D5F4048463F0FF05F080018430D502F443
:020124000422B3
:10012600BB010A89828A83E0F5F0A3E022500687A4
:10013600F009E71922BBFE07E3F5F009E319228966
:0B014600828A83E493F5F07401932299
:10015100BB0110E58229F582E5833AF583E0F5F0EC
:10016100A3E0225009E92582F886F008E622BBFEC9
:100171000AE92582F8E2F5F008E222E5832AF5830F
:08018100E993F5F0A3E99322D4
:00000001FF
