:0300000002026594
:0C026500787FE4F6D8FD7581500202ACF1
:06040600000000000000F0
:100357000A413F065B4F666D7D077F6F013D0001D8
:100367000B00010C00010A00013E00013F000140A3
:100377000020300D00000000000000000000000118
:100387000000000100000000000100010001000062
:100397000000000100000001000100010000000151
:0803A700000100010208000042
:1003D40012012645F024FF92A49000021201514517
:1003E400F024FF92A390000412015145F024FF92DF
:0203F400A22243
:0403B000F8E6F580F6
:1003B400E4FDFCC3ED9FEC9E5015E4FBFA0BBB007F
:0F03C400010AEB64784A70F50DBD00010C80E46E
:0103D3002207
:1003F600758901E4F58A758CDCD2A9D2AFD28C223C
:10018900784B7C007D007BFF7A0479067E007F0630
:100199001200DEE50B75F00A120104F54BE50B754B
:1001A900F00A12010485F04CE50C75F00A120104FD
:1001B900F54DE50C75F00A12010485F04EE50A7556
:1001C900F00A120104F54FE50A75F00A12010485D7
:1001D900F0507B007A00790D1203D474412550F850
:1001E900E6F5807F017E001203B47B007A00791363
:1001F9001203D47441254F1203B07B007A00791998
:100209001203D47580401203B47B007A00791F125F
:1002190003D47441254E1203B07B007A007925126C
:1002290003D47441254D1203B07B007A00792B1257
:1002390003D47580401203B47B007A00793112032C
:10024900D47441254C1203B07B007A00793712032C
:0C025900D47441254BF8E6F5800203B494
:080003001203F612018980FBD3
:03000B000202F1FD
:1002F100C0E0C0D075D000C006C007758CDC758A1F
:10030100000509E50970020508C39464E5086480E5
:1003110094804008750800750900050AAF0AEF339B
:1003210095E0FEEF643C4E7004F50A050CAF0CEF4E
:100331003395E0FEEF643C4E7004F50C050BAF0BFA
:10034100EF3395E0FEEF64184E7002F50BD007D045
:0603510006D0D0D0E0321E
:10027100020003E493A3F8E493A34003F68001F2A0
:1002810008DFF48029E493A3F85407240CC8C3338E
:10029100C4540F4420C8834004F456800146F6DF5D
:1002A100E4800B0102040810204080900357E47E93
:1002B100019360BCA3FF543F30E509541FFEE49352
:1002C100A360010ECF54C025E060A840B8E493A319
:1002D100FAE493A3F8E493A3C8C582C8CAC583CA44
:1002E100F0A3C8C582C8CAC583CADFE9DEE780BEFC
:0103AF00004D
:10000E00E709F608DFFA8046E709F208DFFA803ED4
:10001E0088828C83E709F0A3DFFA8032E309F608C1
:10002E00DFFA8078E309F208DFFA807088828C8329
:10003E00E309F0A3DFFA806489828A83E0A3F608DD
:10004E00DFFA805889828A83E0A3F208DFFA804CB7
:10005E0080D280FA80C680D4806980F2803380108E
:10006E0080A680EA809A80A880DA80E280CA8033F7
:10007E0089828A83ECFAE493A3C8C582C8CCC5836F
:10008E00CCF0A3C8C582C8CCC583CCDFE9DEE7803F
:10009E000D89828A83E493A3F608DFF9ECFAA9F0BE
:1000AE00EDFB2289828A83ECFAE0A3C8C582C8CC14
:1000BE00C583CCF0A3C8C582C8CCC583CCDFEADE2D
:1000CE00E880DB89828A83E493A3F208DFF980CC8F
:1000DE0088F0EF60010E4E60C388F0ED2402B40488
:1000EE000050B9F582EB2402B4040050AF2323452F
:0600FE00822390005E73F6
:10010400C2D530F707B2D563F0FF05F030E70CB283
:10011400D5F4048463F0FF05F080018430D502F443
:020124000422B3
:10012600BB010A89828A83E0F5F0A3E022500687A4
:10013600F009E71922BBFE07E3F5F009E319228966
:0B014600828A83E493F5F07401932299
:10015100BB0110E58229F582E5833AF583E0F5F0EC
:10016100A3E0225009E92582F886F008E622BBFEC9
:100171000AE92582F8E2F5F008E222E5832AF5830F
:08018100E993F5F0A3E99322D4
:00000001FF
